{
  "_format": "hh-sol-artifact-1",
  "contractName": "Gratuity",
  "sourceName": "contracts/Gratuity.sol",
  "abi": [
    {
      "inputs": [],
      "stateMutability": "payable",
      "type": "constructor"
    },
    {
      "anonymous": false,
      "inputs": [
        {
          "indexed": false,
          "internalType": "address",
          "name": "sender",
          "type": "address"
        },
        {
          "indexed": false,
          "internalType": "uint256",
          "name": "amount",
          "type": "uint256"
        },
        {
          "indexed": false,
          "internalType": "string",
          "name": "message",
          "type": "string"
        }
      ],
      "name": "GratuityItemGifted",
      "type": "event"
    },
    {
      "inputs": [
        {
          "internalType": "string",
          "name": "_message",
          "type": "string"
        }
      ],
      "name": "deposit",
      "outputs": [],
      "stateMutability": "payable",
      "type": "function"
    },
    {
      "inputs": [],
      "name": "getAllGratuityItems",
      "outputs": [
        {
          "components": [
            {
              "internalType": "address",
              "name": "sender",
              "type": "address"
            },
            {
              "internalType": "uint256",
              "name": "amount",
              "type": "uint256"
            },
            {
              "internalType": "string",
              "name": "message",
              "type": "string"
            }
          ],
          "internalType": "struct Gratuity.GratuityItem[]",
          "name": "",
          "type": "tuple[]"
        }
      ],
      "stateMutability": "view",
      "type": "function"
    },
    {
      "inputs": [],
      "name": "getTotalGratuity",
      "outputs": [
        {
          "internalType": "uint256",
          "name": "",
          "type": "uint256"
        }
      ],
      "stateMutability": "view",
      "type": "function"
    },
    {
      "inputs": [
        {
          "internalType": "uint256",
          "name": "",
          "type": "uint256"
        }
      ],
      "name": "gratuityItems",
      "outputs": [
        {
          "internalType": "address",
          "name": "sender",
          "type": "address"
        },
        {
          "internalType": "uint256",
          "name": "amount",
          "type": "uint256"
        },
        {
          "internalType": "string",
          "name": "message",
          "type": "string"
        }
      ],
      "stateMutability": "view",
      "type": "function"
    },
    {
      "inputs": [],
      "name": "isOwner",
      "outputs": [
        {
          "internalType": "bool",
          "name": "",
          "type": "bool"
        }
      ],
      "stateMutability": "view",
      "type": "function"
    },
    {
      "inputs": [],
      "name": "owner",
      "outputs": [
        {
          "internalType": "address payable",
          "name": "",
          "type": "address"
        }
      ],
      "stateMutability": "view",
      "type": "function"
    },
    {
      "inputs": [
        {
          "internalType": "address payable",
          "name": "_to",
          "type": "address"
        },
        {
          "internalType": "uint256",
          "name": "_amount",
          "type": "uint256"
        }
      ],
      "name": "transfer",
      "outputs": [],
      "stateMutability": "nonpayable",
      "type": "function"
    },
    {
      "inputs": [],
      "name": "withdraw",
      "outputs": [],
      "stateMutability": "nonpayable",
      "type": "function"
    }
  ],
  "bytecode": "0x600160005560038054336001600160a01b031990911617905560c0604052601f60809081527f4c4f473a20477261747569747920636f6e7472616374206465706c6f7965640060a05261005c90610061602090811b61072617901c565b610121565b6100a88160405160240161007591906100cc565b60408051601f198184030181529190526020810180516001600160e01b0390811663104c13eb60e21b179091526100ab16565b50565b80516a636f6e736f6c652e6c6f67602083016000808483855afa5050505050565b600060208083528351808285015260005b818110156100f9578581018301518582016040015282016100dd565b8181111561010b576000604083870101525b50601f01601f1916929092016040019392505050565b610ae7806101306000396000f3fe60806040526004361061007b5760003560e01c80638da5cb5b1161004e5780638da5cb5b1461010f5780638f32d59b14610147578063a26e118614610172578063a9059cbb1461018557600080fd5b80633ccfd60b1461008057806354b25d57146100975780635ba23f7b146100c25780638269f2dd146100e0575b600080fd5b34801561008c57600080fd5b506100956101a5565b005b3480156100a357600080fd5b506100ac61029c565b6040516100b99190610873565b60405180910390f35b3480156100ce57600080fd5b506002546040519081526020016100b9565b3480156100ec57600080fd5b506101006100fb3660046108fb565b6103ad565b6040516100b993929190610914565b34801561011b57600080fd5b5060035461012f906001600160a01b031681565b6040516001600160a01b0390911681526020016100b9565b34801561015357600080fd5b506003546001600160a01b0316331460405190151581526020016100b9565b610095610180366004610944565b610476565b34801561019157600080fd5b506100956101a03660046109b6565b6105d9565b6003546001600160a01b031633146101fe5760405162461bcd60e51b815260206004820152601760248201527631b0b63632b91034b9903737ba103a34329037bbb732b960491b60448201526064015b60405180910390fd5b6040514790600090339083908381818185875af1925050503d8060008114610242576040519150601f19603f3d011682016040523d82523d6000602084013e610247565b606091505b50509050806102985760405162461bcd60e51b815260206004820152601860248201527f4661696c656420746f207769746864726177204574686572000000000000000060448201526064016101f5565b5050565b60606004805480602002602001604051908101604052809291908181526020016000905b828210156103a4576000848152602090819020604080516060810182526003860290920180546001600160a01b0316835260018101549383019390935260028301805492939291840191610313906109ee565b80601f016020809104026020016040519081016040528092919081815260200182805461033f906109ee565b801561038c5780601f106103615761010080835404028352916020019161038c565b820191906000526020600020905b81548152906001019060200180831161036f57829003601f168201915b505050505081525050815260200190600101906102c0565b50505050905090565b600481815481106103bd57600080fd5b60009182526020909120600390910201805460018201546002830180546001600160a01b0390931694509092916103f3906109ee565b80601f016020809104026020016040519081016040528092919081815260200182805461041f906109ee565b801561046c5780601f106104415761010080835404028352916020019161046c565b820191906000526020600020905b81548152906001019060200180831161044f57829003601f168201915b5050505050905083565b600034116104bc5760405162461bcd60e51b81526020600482015260136024820152722cb7ba9036bab9ba1039b2b7321032ba3432b960691b60448201526064016101f5565b34600260008282546104ce9190610a29565b9091555050600180548101905560046040518060600160405280336001600160a01b0316815260200134815260200184848080601f0160208091040260200160405190810160405280939291908181526020018383808284376000920182905250939094525050835460018082018655948252602091829020845160039092020180546001600160a01b0319166001600160a01b0390921691909117815583820151948101949094556040830151805193949361059593506002850192919091019061078d565b5050507f9a65c3abbedf18d6fb6b9edb737add9770570bf8b465ff4336783c4617ed9a97333484846040516105cd9493929190610a4f565b60405180910390a15050565b6003546001600160a01b0316331461062d5760405162461bcd60e51b815260206004820152601760248201527631b0b63632b91034b9903737ba103a34329037bbb732b960491b60448201526064016101f5565b600260005414156106805760405162461bcd60e51b815260206004820152601f60248201527f5265656e7472616e637947756172643a207265656e7472616e742063616c6c0060448201526064016101f5565b600260009081556040516001600160a01b0384169083908381818185875af1925050503d80600081146106cf576040519150601f19603f3d011682016040523d82523d6000602084013e6106d4565b606091505b505090508061071c5760405162461bcd60e51b81526020600482015260146024820152732330b4b632b2103a379039b2b7321022ba3432b960611b60448201526064016101f5565b5050600160005550565b6107698160405160240161073a9190610a97565b60408051601f198184030181529190526020810180516001600160e01b031663104c13eb60e21b17905261076c565b50565b80516a636f6e736f6c652e6c6f67602083016000808483855afa5050505050565b828054610799906109ee565b90600052602060002090601f0160209004810192826107bb5760008555610801565b82601f106107d457805160ff1916838001178555610801565b82800160010185558215610801579182015b828111156108015782518255916020019190600101906107e6565b5061080d929150610811565b5090565b5b8082111561080d5760008155600101610812565b6000815180845260005b8181101561084c57602081850181015186830182015201610830565b8181111561085e576000602083870101525b50601f01601f19169290920160200192915050565b60006020808301818452808551808352604092508286019150828160051b87010184880160005b838110156108ed57888303603f19018552815180516001600160a01b03168452878101518885015286015160608785018190526108d981860183610826565b96890196945050509086019060010161089a565b509098975050505050505050565b60006020828403121561090d57600080fd5b5035919050565b60018060a01b038416815282602082015260606040820152600061093b6060830184610826565b95945050505050565b6000806020838503121561095757600080fd5b823567ffffffffffffffff8082111561096f57600080fd5b818501915085601f83011261098357600080fd5b81358181111561099257600080fd5b8660208285010111156109a457600080fd5b60209290920196919550909350505050565b600080604083850312156109c957600080fd5b82356001600160a01b03811681146109e057600080fd5b946020939093013593505050565b600181811c90821680610a0257607f821691505b60208210811415610a2357634e487b7160e01b600052602260045260246000fd5b50919050565b60008219821115610a4a57634e487b7160e01b600052601160045260246000fd5b500190565b6001600160a01b0385168152602081018490526060604082018190528101829052818360808301376000818301608090810191909152601f909201601f191601019392505050565b602081526000610aaa6020830184610826565b939250505056fea2646970667358221220582fa399417160cfd627dfb45c854165d31853c03ab736a4f2339396ee0ea6a764736f6c634300080b0033",
  "linkReferences": {},
  "deployedLinkReferences": {}
}